:020000040800F2
:1000000000400020DD010008E5010008E9010008CA
:1000100000000000000000000000000000000000E0
:100020000000000000000000000000001D020008A9
:100030000000000000000000210200082D1300084D
:100040002D0200082D0200082D0200082D020008D4
:100050002D0200082D0200082D0200082D020008C4
:100060002D0200082D0200082D0200082D020008B4
:100070002D0200082D0200082D0200082D020008A4
:100080002D0200082D0200082D0200082D02000894
:100090002D0200082D0200082D0200082D02000884
:1000A0002D0200082D0200082D0200082D02000874
:1000B0002D0200082D0200082D0200082D02000864
:1000C0005FF808F130B583B000F0FEFE314B324AE4
:1000D0001360324A1360324B324A03E011681960F0
:1000E0000433043230498B42F8D32B4B1A682F4B20
:1000F0009A4204D1294B1A682D4B9A4200D0FEE750
:10010000244B2C4A13602C4A13602C4B02E0002233
:100110001A6004332A4A9342F9D3264B1B68002BFA
:1001200003D1254B1B68002B00D0FEE700F0D0FE6A
:1001300001A8694600F056FE224C234B1C1BA4105C
:10014000002504E0AA001F4BD35898470135AC4264
:10015000F8DC1E4C1E4B1C1BA410002504E0AA005A
:100160001A4BD35898470135AC42F8DC01980099F6
:1001700001F0E0F8051C174C174B1C1BA41004E001
:10018000013CA200134BD3589847002CF8DC281CE4
:1001900000F0FAFDBABADECA000000208400002098
:1001A0000000002018200008880000207856341233
:1001B0003254769888000020240100208800002016
:1001C00028010020580200085802000858020008C0
:1001D00058020008580200085802000808B5FFF746
:1001E00071FFC04600BEFEE704207146084202D0FF
:1001F000EFF3098001E0EFF3088071460A4A1047E7
:1002000038B5051C0C1C044800F000FE281C211CFD
:1002100000F062FE00BEFEE7741F000800BEFEE7AD
:1002200000BEFEE7704700000102000800BEFEE7C6
:100230001820000800000020880000201820000876
:1002400000000000000000008800002028010020BD
:080250000000000000000000A6
:1002580010B5041E0A4B9C4203D00A48852100F0C1
:10026800C5FD074B9C4209D18024A400201C012114
:1002780000F008FB201C002100F004FB10BDC04664
:1002880000240140541D000838B5051C0C1C314BD6
:10029800984203D03048A12100F0A8FD2368002B24
:1002A80009D0082B07D0102B05D0182B03D02A48CB
:1002B800A22100F09BFD2379012B03D92648A32115
:1002C80000F094FDA368002B0FD08022D200934247
:1002D8000BD080221201934207D0C0221201934210
:1002E80003D01D48A42100F081FDE368002B0DD048
:1002F800402B0BD0802B09D0C02B07D08022520076
:10030800934203D01448A52100F070FD2369002B07
:1003180005D0202B03D01048A62100F067FD6369A3
:10032800002B05D0042B03D00B48A72100F05EFD5D
:10033800EA680A4B1A4023795B0321680B43A168DA
:100348000B43E1680B4321690B4361690B4313437A
:10035800EB6038BD00240140541D000803D2FFFFA4
:100368000023036003718360C360036143617047C6
:1003780038B5041C0D1C0C4B984203D00B48E921DE
:1003880000F034FD012D03D90848EA2100F02EFDC4
:10039800002D04D0A26801231343A36003E0A268E0
:1003A80002231343A36038BD00240140541D0008F4
:1003B80070B5051C0C1C161C0D4B984203D00D483B
:1003C8000D4900F013FD002C01D0E30C04D00948BE
:1003D800B421890000F00AFD072E03D90548074912
:1003E80000F004FDAB6A1C43AC626E6170BDC04690
:1003F80000240140541D0008CF020000D102000073
:1004080010B5041E0E4B9C4203D00E480E4900F056
:10041800EDFCA368802212061343A3600022A368A0
:10042800DB0FDB070132F02109028A4201D0002BE1
:10043800F5D1A368002B01DB206C00E0002010BD83
:1004480000240140541D00083D03000010B5041E9F
:10045800054B9C4203D00548054900F0C7FCA2683B
:1004680004231343A36010BD00240140541D000859
:100478006F03000010B5041E054B9C4204D00548CC
:10048800DF21890000F0B2FC206C80B210BDC046AC
:1004980000240140541D000838B5051C0C1C1A4BDB
:1004A800984203D019481A4900F0A0FC631E012B9A
:1004B8001CD9042C1AD0082C18D0802C16D0102C3B
:1004C80014D0144B9C4211D0134B9C420ED0134BAA
:1004D8009C420BD0124B9C4208D081231B069C42A5
:1004E80004D00A488B21C90000F080FCE30103D541
:1004F800AA680C4B134000E02B681C4201D0012075
:1005080000E0002038BDC04600240140541D00080A
:10051800570400000100000102000001040000016E
:1005280010000001FFFFFFFEF8B5051C0E1C90230C
:10053800DB05984212D03D4B98420FD03C4B984275
:100548000CD03C4B984209D03B4B984206D03B4BD1
:10055800984203D03A48AE2100F048FC3368002B9B
:1005680003D13748AF2100F041FC3379032B03D97D
:100578003348B02100F03AFCF379022B03D9304814
:10058800B12100F033FC00244CE00123A340326881
:100598001A409A4245D13379013B012B28D8737907
:1005A800012B05D9032B03D02548C12100F01EFCDF
:1005B800AA686000032181408A43AA60A968727909
:1005C800131C83400B43AB60B379012B03D91C4840
:1005D800C82100F00BFCAB882204120C01219140C9
:1005E8008B43AB80A888B17991408BB20343AB8031
:1005F8002B6867000320021CBA4093432B602B68CA
:1006080031790A1CBA401A432A60EB682204D20BDB
:1006180090408343EB60E968F279131CBB400B43BD
:10062800EB6001340F2CB0D9F8BDC0460004004877
:1006380000080048000C004800100048001400485A
:10064800841D000838B5041C0D1C9023DB05984256
:1006580013D00E4B984210D00D4B98420DD00D4B35
:1006680098420AD00C4B984207D00C4B984204D0C1
:100678000B488621FF3100F0B9FB002D04D1084852
:10068800C321490000F0B2FBA56138BD0004004851
:1006980000080048000C00480010004800140048FA
:1006A800841D000838B5041C0D1C9023DB059842F6
:1006B80013D00E4B984210D00D4B98420DD00D4BD5
:1006C80098420AD00C4B984207D00C4B984204D061
:1006D8000B48CD21490000F089FB002D04D10848C2
:1006E8009C21FF3100F082FB258538BD00040048BD
:1006F80000080048000C004800100048001400489A
:10070800841D000870B5051C0C1C161C9023DB0505
:10071800984213D0174B984210D0174B98420DD0DF
:10072800164B98420AD0164B984207D0154B984260
:1007380004D015488121890000F058FB0F2C03D9FB
:100748001148124900F052FB072E03D90E481049F0
:1007580000F04CFB072323409B009E40E108083132
:1007680089004A590F20984082434A514B591E43E9
:100778004E5170BD0004004800080048000C0048B5
:100788000010004800140048841D000805020000FD
:100798000602000038B5041C0D1C0D4B184201D18F
:1007A800002803D10B480C4900F020FB012D03D988
:1007B80008480A4900F01AFB002D04D0084B5A6972
:1007C80014435C6103E0064A5369A343536138BD8F
:1007D800A8FF81FEB81D0008560500005705000057
:1007E8000010024038B5041C0D1C0D4B184201D1F5
:1007F800002803D10B480C4900F0F8FA012D03D961
:1008080008480A4900F0F2FA002D04D0084B9A690A
:1008180014439C6103E0064A9369A343936138BD7E
:100828001EA5B8FFB81D00087D0500007E05000064
:100838000010024038B5041C0D1C0D4B184201D1A4
:10084800002803D10B480C4900F0D0FA012D03D938
:1008580008480A4900F0CAFA002D04D0084BDA69A2
:100868001443DC6103E0064AD369A343D36138BD6E
:10087800CCB68185B81D0008AB050000AC050000AA
:100888000010024038B5041C0D1C0D4B184201D154
:10089800002803D10B480C4900F0A8FA012D03D910
:1008A80008480A4900F0A2FA002D04D0084BDA687B
:1008B8001443DC6003E0064AD368A343D36038BD21
:1008C8001EA5B8FFB81D0008EE050000EF050000E2
:1008D8000010024038B5041C0D1C374B98421DD03F
:1008E8008023DB05984219D0344B984216D0344BFC
:1008F800984213D0334B984210D0334B98420DD0C6
:10090800324B98420AD0324B984207D0314B98422A
:1009180004D031488621490000F068FA6B88002B22
:100928000CD0102B0AD0202B08D0402B06D0602BDF
:1009380004D029480E21FF3100F058FA2B89002BEA
:100948000CD080225200934208D00132FF329342E9
:1009580004D021488721490000F048FA23889BB237
:10096800154A944206D08022D205944202D0134AF6
:10097800944203D1702293436A881343104A9442E5
:1009880003D02A8915490B40134323806B68E3621F
:100998002B882385084B9C4208D00C4B9C4205D0E1
:1009A8000B4B9C4202D00B4B9C4201D1AB7A238665
:1009B8000123A38238BDC046002C0140000400403A
:1009C800001000400014004000200040004001409A
:1009D8000044014000480140E81D0008FFFCFFFFFB
:1009E80070B5041C0E1C151C154B98421DD0802395
:1009F800DB05984219D0134B984216D0124B9842F7
:100A080013D0124B984210D0114B98420DD0114B75
:100A180098420AD0104B984207D0104B984204D005
:100A28000F485421FF3100F0E1F9012D04D90C4899
:100A3800AA21490000F0DAF92685A58270BDC046D2
:100A4800002C014000040040001000400014004049
:100A5800002000400040014000440140004801409F
:100A6800E81D000838B5041C0D1C194B98421CD011
:100A78008023DB05984218D0164B984215D0164BA8
:100A8800984212D0154B98420FD0154B98420CD073
:100A9800144B984209D0144B984206D0134B9842F5
:100AA80003D01348134900F0A1F9012D04D91048C7
:100AB8008421890000F09AF9002D04D0228880232F
:100AC8001343238003E0238880229343238038BD87
:100AD800002C0140000400400010004000140040B9
:100AE800002000400040014000440140004801400F
:100AF800E81D00080F02000038B5041C0D1C194B36
:100B080098421DD08023DB05984219D0164B984295
:100B180016D0164B984213D0154B984210D0154B4F
:100B280098420DD0144B98420AD0144B984207D0E3
:100B3800134B984204D013489721890000F056F9C6
:100B4800012D03D90F48104900F050F9002D04D0A9
:100B5800228801231343238003E02388012293433F
:100B6800238038BD002C01400004004000100040E4
:100B780000140040002000400040014000440140B3
:100B880000480140E81D00085D020000F0B5474636
:100B980080B4041C0E1C4D4B984217D08023DB05F3
:100BA800984213D04A4B984210D04A4B98420DD0E5
:100BB800494B98420AD0494B984207D0484B984233
:100BC80004D04848C321890000F010F93388002B6D
:100BD8000DD0102B0BD0202B09D0302B07D0602B39
:100BE80005D0702B03D03F483F4900F0FFF87388C9
:100BF800012B03D93B483D4900F0F8F8B389002B95
:100C080005D0022B03D03748394900F0EFF8238C80
:100C1800012293432384258CA788BFB2238B723289
:100C2800934332881A43904602239D43B3891D4358
:100C380073881D43254B9C4208D0274B9C4205D006
:100C4800264B9C4202D0264B9C4236D1B388002BBF
:100C580005D0042B03D02348264900F0C7F8F389B0
:100C6800002B06D0082B04D01E48CB21890000F0A9
:100C7800BDF8738A80229200934205D0002B03D0DE
:100C880018481D4900F0B2F8338A80225200934276
:100C980005D0002B03D01348184900F0A7F8082303
:100CA8009D43F3891D4304239D43B3881D43144B7F
:100CB8001F40338A1F43738A1F43A78043462383F9
:100CC800B3686363258404BC9046F0BD002C0140E2
:100CD8000004004000200040004001400044014062
:100CE80000480140E81D00080D0300000E03000045
:100CF8000F0300002B0300002D0300002E0300004B
:100D0800FFFCFFFF38B5041C0D1C144B984216D08D
:100D18008023DB05984212D0114B98420FD0114B1B
:100D280098420CD0104B984209D0104B984206D0EC
:100D38000F4B984203D00F480F4900F057F8082D81
:100D480005D0002D03D00B480C4900F04FF8238B39
:100D5800082293431D43258338BDC046002C01401B
:100D680000040040002000400040014000440140D1
:100D780000480140E81D0008620500006305000006
:100D8800FEE7C04608B5034800F054F80120FFF715
:100D9800F7FFC046181E000808B5031C0C4A126865
:100DA800002A02D10B490A4A1160094A1068033324
:100DB80003229343C318084A934206D900F098FBCC
:100DC8000C2303600120404201E0014A136008BD82
:100DD8008C00002028010020003C00200123036033
:100DE800014B0B607047C0460400002008B5031C87
:100DF8000A1C0348191C00F005F8FFF7C3FFC0469A
:100E08006C1E00080FB400B583B004AB04CB01938B
:100E18000748802100F0A4FB011E03DD044800F010
:100E28004BF8011C081C03B008BC04B01847C046A6
:100E38009400002010B5041C00F060FB011C201C6D
:100E480000F03AF80248012100F036F810BDC0461B
:100E5800D01E0008F0B54F464646C0B487B0041C03
:100E68000191435C002B1ED10426301C211CABBE13
:100E7800041C1BE03E1E102E00D91026002304E09F
:100E8800227802A9CA5401330134B342F8D302AA22
:100E9800914600224946CA540425281C4946ABBE3F
:100EA8008046BF1B00E0019F002FE3D1019807B0E7
:100EB8000CBC90469946F0BD08B5FFF7CBFF08BDBE
:100EC80008B500F0A1F808BD08B500F0CFF808BDD6
:100ED80038B5041C0D1C1548FFF794FF1448216809
:100EE800FFF790FF13486168FFF78CFF1248A1686D
:100EF800FFF788FF1148E168FFF784FF1048216970
:100F0800FFF780FF0F486169FFF77CFF0E48A16972
:100F1800FFF778FFE1690D48FFF774FF0C48FFF70A
:100F280071FF0C48291CFFF76DFF38BDC41E00086F
:100F3800D41E0008E41E0008F41E0008041F000860
:100F4800141F0008241F0008341F0008441F00084D
:100F5800541F00085C1F000882B00023019300930F
:100F6800264A1368802149020B431360234B1A68F1
:100F780080239B0213400093019B01330193009B44
:100F8800002B04D1019AA023DB019A42EED11B4B1E
:100F98001B689B0302D50123009301E00023009303
:100FA800009B012B28D11122154B1A60134B5A684C
:100FB8005A605A685A605968124A0A405A605A6810
:100FC800882149030A435A601A68802149040A4360
:100FD8001A600A4B1B689B01FBD5084B5A68032112
:100FE8008A435A60596802220A435A60034B5B6875
:100FF8000C221340082BF9D102B0704700100240B0
:1010080000200240FF7FC0FF08B5124B1A6801217B
:101018000A431A605868104A02405A6018680F4A12
:1010280002401A6018680E4A02401A6058680D4A51
:1010380002405A60DA6A0F208243DA62186B0A4A61
:1010480002401A635A6B8A435A6300229A60FFF778
:1010580083FF08BD001002400CB8FF08FFFFF6FE32
:10106800FFFFFBFFFFFFC0FFACFEFFFF10B51E4BED
:101078005B680C221340042B07D0082B09D0002BE7
:1010880022D11A4A1A4B1A6021E0184A184B1A60E2
:101098001DE0154B5C68A4025A68240F0234C02373
:1010A8005B021A4204D113484443114B1C600EE002
:1010B8000D4BDB6A0F21194001310C4800F086F90D
:1010C80044430B4B1C6002E0084A094B1A60064B6C
:1010D8005B681B061B0F084AD35CDBB2044A116825
:1010E800D940116010BDC0460010024000127A00BD
:1010F8001C00002000093D000C00002010B582B043
:10110800802000030121FFF745FB802300937F3BEC
:101118006A46137100239371032269464A71CB71A1
:10112800044C201CFFF700FA201C8021FFF7BAFAB4
:1011380002B010BD0008004830B589B08020800298
:101148000121FFF727FB06A90223069301330B7140
:101158004B710025CD719020C005FFF7E5F980207F
:1011680080000121FFF73EFB164C201CFFF770F8AA
:101178006846FFF7F5F8009501236A461371802346
:10118800DB0002934023039304950595201C6946D0
:10119800FFF77AF8201C02210022FFF709F9201C2A
:1011A800FFF72EF9201C0121FFF7E2F8054801217D
:1011B800FFF772F90028F9D00248FFF747F909B09C
:1011C80030BDC0460024014008B505480421FFF79A
:1011D80063F90028F9D00248FFF74CF908BDC0466A
:1011E8000024014030B58BB0802080020121FFF738
:1011F800D1FA08A9202308931E3B0B7101334B71C8
:101208000025CD719024E405201CFFF78DF9201CE2
:1012180005210222FFF776FA01200121FFF70AFBD8
:10122800144B1868144900F0D1F805A90138088052
:101238004D80C8234B600D818024E405201CFFF7F6
:1012480049FB60236A46138002955F3B5380958172
:10125800201C6946FFF79AFC201C0821FFF752FD65
:10126800201C0121FFF7FEFB201C0121FFF744FC95
:101278000BB030BD1C000020400D030010B5C82382
:101288004343191C074B186800F0A0F88024E405B4
:10129800411E89B2201C0122FFF7A2FB642363636D
:1012A80010BDC0461C00002000228023DB055A63C5
:1012B8007047C04608B50C4B1868FA21890000F041
:1012C80085F80138094B98420DD8094A50600949F8
:1012D8000B6A1B021B0AC020000603430B62002393
:1012E80093600733136008BD1C000020FFFFFF0058
:1012F80010E000E000ED00E0034B1860024B1B68B3
:10130800002BFBD17047C04620010020044B1B680E
:10131800002B03D0024A1368013B13607047C04694
:101328002001002008B5FFF7F1FF08BD10B51D48E2
:10133800FFF780FD1C4B19681C48FFF763FDFFF79A
:10134800B9FFFFF7DBFEFFF7F7FEFFF74BFF184883
:10135800FFF794FF1748FFF7CFFFFFF7A5FF1648E1
:10136800FFF750FD002415488021FFF76BF9002C8A
:1013780002D1FA20800000E01148FFF7BDFF0F48B6
:101388008021FFF78FF9FA20FFF7B6FF01340D48E7
:10139800211CFFF737FDFFF717FF011C0A48FFF76D
:1013A80031FDE0E7841F00081C000020981F00089A
:1013B8001027000088130000B01F0008000800482C
:1013C800EE020000CC1F0008D81F000800224308C6
:1013D8008B4274D303098B425FD3030A8B4244D3F5
:1013E800030B8B4228D3030C8B420DD3FF22090237
:1013F80012BA030C8B4202D31212090265D0030BF6
:101408008B4219D300E0090AC30B8B4201D3CB03EB
:10141800C01A5241830B8B4201D38B03C01A52412D
:10142800430B8B4201D34B03C01A5241030B8B422F
:1014380001D30B03C01A5241C30A8B4201D3CB021A
:10144800C01A5241830A8B4201D38B02C01A5241FF
:10145800430A8B4201D34B02C01A5241030A8B4202
:1014680001D30B02C01A5241CDD2C3098B4201D31A
:10147800CB01C01A524183098B4201D38B01C01A98
:10148800524143098B4201D34B01C01A524103090F
:101498008B4201D30B01C01A5241C3088B4201D3BE
:1014A800CB00C01A524183088B4201D38B00C01A6B
:1014B800524143088B4201D34B00C01A5241411A92
:1014C80000D20146524110467047FFE701B500209F
:1014D80000F00CF802BDC0460029F7D003B5FFF7AD
:1014E80075FF0EBC4243891A1847C0467047C0466C
:1014F800014B18687047C046800000200023C25C7A
:101508000133002AFBD1581E704730B5151C9BB01B
:10151800002A04DA8B230360012040421DE0822266
:101528006C460091049100219200A2818D4200D066
:10153800691E1A1C01230291059169465B42CB8101
:101548001E9B041C00F07CF8431C01DA8B232360EB
:10155800002D02D00023009A13701BB030BD00008C
:1015680073B5061C0D1C141C0093044B311C2A1C5B
:101578001868231CFFF7C9FF76BDC046800000200D
:10158800F0B58E6885B0071C0C1C03920193B3421A
:1015980045D390238A89DB001A423DD00325096987
:1015A800236801985B1A029363695D43EB0F5D1929
:1015B800029B6D1001331B189D4200D21D1C381C64
:1015C80053050FD5291C00F025FB061E13D0029ADF
:1015D800216900F0BCFAA289184B134080221343FA
:1015E800A38111E02A1C00F06DFB061E0CD1381CEB
:1015F800216900F0C9FA0C23402201203B60A3892D
:1016080040421343A38117E0029B2661F618266027
:101618006561019EED1AA560019BB34200D2019E4F
:10162800321C2068039900F09BFA0020A3689B1BDA
:10163800A36023689E19266005B0F0BD7FFBFFFFFD
:10164800F0B59FB0029005938B890E1C171C1B06E2
:1016580010D50B69002B0DD1402100F0DBFA30606A
:101668003061002804D10C23029A01381360D0E0BD
:1016780040237361002306AD6B6120336B76103312
:10168800AB763C1C2378002B03D1E31B049312D0C8
:1016980003E0252BF9D00134F4E7049B0298311CB0
:1016A8003A1CFFF76DFF431C00D1ACE06A69049B4C
:1016B800944663446B612378002B00D1A3E0012298
:1016C800002352426A6002A95432521801342B6036
:1016D800EB60AB601370AB654F4F2178381C052267
:1016E80000F02AFA002808D0C01B01278740381CC0
:1016F8002B68013418432860EEE72B68DA0604D516
:101708005322202102A8121811701A0704D5532257
:101718002B2102A81218117022782A2A01D0099BBD
:101728000EE0059A111D12680591002A01DB099245
:1017380004E05242EA60022213432B60013409E0BC
:101748002278303A092A04D80A214B4301349B18DD
:10175800F6E7099323782E2B18D163782A2B09D121
:10176800059B02341A1D1B680592002B0DDA012314
:101778005B420AE0002301342278303A092A04D86F
:101788000A214B4301349B18F6E70793234F21782E
:10179800381C032200F0D0F9002807D0C01B4027CE
:1017A8008740381C2B6801341843286021781C486E
:1017B8000622671C297600F0BFF9002812D0194BC1
:1017C800002B06D10722059B073393430833059363
:1017D80014E005AB00930298291C321C124B00E060
:1017E80000BF07E005AB00930298291C321C0E4B82
:1017F80000F08AF80390039B013304D06B69039AC5
:101808009B186B613DE7B3890B985B0601D50120F6
:1018180040421FB0F0BDC046E21F0008E81F0008A4
:10182800EC1F00080000000089150008F7B5171C18
:1018380001930A698B6800900C1C934200DA131C10
:10184800221C3B6043321278002A01D001333B60EE
:1018580023689B0602D53B6802333B600625236854
:101868001D401ED0231C43331B785A1E9341226807
:1018780092061CD53020E1184031C870211C5A1C32
:1018880045310978A21840320233D1700FE0221C8A
:101898000123009801991932089EB047431C0ED0C5
:1018A8000135E3683A689B1A9D42F0DBDAE7221CAF
:1018B800009801994332089DA847431C02D1012092
:1018C800404220E006232068E1683A68034000258A
:1018D800042B03D18D1AEB43DB171D40A368226943
:1018E800934201DD9B1AED180027AF420ADA221C49
:1018F8000123009801991A32089EB047431CDED094
:101908000137F2E70020FEBDF0B58BB006920A1C45
:1019180043320793059004920A7E0C1C109B6E2A92
:1019280000D1A8E011D8632A22D009D8002A00D112
:10193800B2E0582A00D0C2E045310A707C4A4FE034
:10194800642A1DD0692A1BD0B9E0732A00D1A7E008
:1019580009D86F2A29D0702A00D0B0E0202209685F
:101968000A43226037E0752A1FD0782A33D0A6E0D0
:101978000E1C1A684236111D196013683370A1E0F5
:1019880021681A68080606D4490604D5111D19608D
:101998000023D55E02E0111D19601568002D3BDAA1
:1019A8002D23049A6D42137036E021681A680806E0
:1019B80006D4490604D51568111D1960ADB202E0B8
:1019C800111D196015685A4B227E03930A276F2A46
:1019D8001DD108271BE0221C782145321170554A79
:1019E80019680392081D226818600D68100602D451
:1019F800500600D5ADB2D30702D520231A43226082
:101A08001027002D03D1202322689A432260231C2B
:101A1800002243331A7002E00A27454B0393636898
:101A2800A360002B03DB0422216891432160002D71
:101A380002D1049E002B0ED0049E281C391CFFF7EF
:101A48004BFD039B013E5B5C281C3370391CFFF780
:101A5800BDFC051EF1D1082F09D12368DB0706D587
:101A680063682269934202DC3023013E3370049B91
:101A78009B1B23612BE009681A68080607D44906EE
:101A880005D5111D19601368A28A1A8004E0111D7A
:101A98001960136862691A600023049E236116E0C6
:101AA8001A68111D196016680021301C626800F060
:101AB80043F8002801D0801B6060636803E0261C9F
:101AC80042363270012323610023049A1370079B66
:101AD80005980093211C069B09AAFFF7A7FE431C43
:101AE80002D10120404221E0236905980699321C61
:101AF800079DA847431CF4D023689B0705D4099B7E
:101B0800E068984212DA181C10E00025E368099A88
:101B18009B1A9D42F3DA221C012305980699193273
:101B2800079EB047431CDCD00135EFE70BB0F0BD92
:101B3800F31F000804200008C9B28218904204D09C
:101B480003788B4202D00130F8E700207047002369
:101B580010B5934203D0CC5CC4540133F9E710BDEF
:101B680010B5814208D28B18984205D29B1A013AC7
:101B780009D3995C8154FAE70023934203D0CC5CE3
:101B8800C4540133F9E710BD30B500293ED00439FB
:101B98000B68002B00DAC9181D4A1368141C002BA7
:101BA80002D14B60116031E099420DD208680A18E1
:101BB8009A4203D11368C3180B6053684B602160C5
:101BC80024E08A4203D8131C5A68002AF9D11D68F8
:101BD8005C198C420BD10968691858181960904231
:101BE80014D110685268091819605A600EE08C42C6
:101BF80002D90C23036009E008680C18944203D149
:101C080014685268001908604A60596030BDC046BF
:101C180018010020032370B5CC1C9C430834051C14
:101C28000C2C01D20C2405E0002C03DA0C23002034
:101C38002B6042E08C42F9D3204A1368101C191C0F
:101C4800002913D00A68121B0DD40B2A02D90A6086
:101C58008B181FE08B4202D15A6802601BE04A6869
:101C68005A600B1C17E00B1C4968E9E7144E3368EF
:101C7800002B03D1281C00F04BF83060281C211CD5
:101C880000F046F8031C421CD0D00322C61C964321
:101C980086420AD11C60181C07210B301A1D884384
:101CA800821A0AD05142995007E0311A281C00F0D4
:101CB8002FF8431CBAD0331CECE770BD1801002084
:101CC80014010020F8B5061C0C1C151C002904D1B1
:101CD800111CFFF79FFF041C18E0002A03D1FFF72F
:101CE80053FF2C1C12E000F025F8A8420ED2301C3D
:101CF800291CFFF78FFF071E07D0211C2A1CFFF79E
:101D080026FF301C211CFFF73FFF3C1C201CF8BDA0
:101D180038B50023064C051C081C2360FFF73CF867
:101D2800431C03D12368002B00D02B6038BDC0466C
:101D38001C0100200B1F1A68101F002A04DA8918DA
:101D480004390B68D0180438704700002E2E2F7302
:101D5800797374656D2F7372632F73746D33326684
:101D6800302D7374647065726970682F73746D3385
:101D780032663078785F6164632E63002E2E2F738D
:101D8800797374656D2F7372632F73746D33326654
:101D9800302D7374647065726970682F73746D3355
:101DA80032663078785F6770696F2E6300000000D4
:101DB8002E2E2F73797374656D2F7372632F73745E
:101DC8006D333266302D7374647065726970682F74
:101DD80073746D3332663078785F7263632E630094
:101DE8002E2E2F73797374656D2F7372632F73742E
:101DF8006D333266302D7374647065726970682F44
:101E080073746D3332663078785F74696D2E630051
:101E180061626F727428292C2065786974696E670D
:101E28002E2E2E002C2066756E6374696F6E3A2014
:101E380000000000617373657274696F6E2022255B
:101E48007322206661696C65643A2066696C652056
:101E5800222573222C206C696E6520256425732544
:101E6800730A00006173736572745F706172616DEB
:101E78002829206661696C65643A2066696C65206A
:101E8800222573222C206C696E652025640A0000C7
:101E98006D61696E28617267633D25642C206172EB
:101EA80067763D5B000000002C200000222573228D
:101EB800000000005D293B0A0000000053746163C4
:101EC8006B206672616D653A0A000000205230206E
:101ED8003D2020253038580A0000000020523120CB
:101EE8003D2020253038580A0000000020523220BA
:101EF8003D2020253038580A0000000020523320A9
:101F08003D2020253038580A000000002052313288
:101F1800203D20253038580A00000000204C52206F
:101F28003D2020253038580A00000000205043206A
:101F38003D2020253038580A000000002050535218
:101F4800203D20253038580A000000004D69736391
:101F58000A000000204C522F4558435F5245545503
:101F6800524E3D20253038580A0000005B48617207
:101F7800644661756C745D0A0000000048656C6C0D
:101F88006F2041524D20576F726C64210000000091
:101F980053797374656D20636C6F636B3A20257594
:101FA80020487A0A0000000050756C736520676548
:101FB8006E657261746F7220696E697469616C69AB
:101FC8007A6564005365636F6E642025750A0000A6
:101FD800583A202575200A004300232D302B200075
:101FE800686C4C00656667454647003031323334CB
:101FF800353637383941424344454600303132336B
:0D200800343536373839616263646566002F
:1020180078563412900000200000000000000000F4
:10202800000000000102030406070809006CDC0236
:102038000000000000000000000000000000000098
:102048000000000000000000000000000000000088
:10205800E01F000800000000000000000000000071
:102068000000000000000000000000000000000068
:102078000000000000000000000000000000000058
:102088000000000000000000000000000000000048
:0820980020000020325476986C
:04000005080000C52A
:00000001FF
