:020000040800F2
:100000000040002085010008890100088B010008DC
:1000100000000000000000000000000000000000E0
:10002000000000000000000000000000A501000822
:100030000000000000000000A70100089D08000863
:10004000B5010008B5010008B5010008B5010008B8
:10005000B5010008B5010008B5010008B5010008A8
:10006000B5010008B5010008B5010008B501000898
:10007000B5010008B5010008B5010008B501000888
:10008000B5010008B5010008B5010008B501000878
:10009000B5010008B5010008B5010008B501000868
:1000A000B5010008B5010008B5010008B501000858
:1000B000B5010008B5010008B5010008B501000848
:1000C0005FF808F173B500F017FA0022224B2349BC
:1000D000D3188B4204D22249895804321960F5E7BB
:1000E000204B214A934202D2002204C3F9E700F0D8
:1000F00007FA684601A900F0F7F91C4B00251E1C01
:100100001B4CE41AA410A54204DAAB00F35898473C
:100110000135F8E7174B00251E1C174CE41AA410F4
:10012000A54204DAAB00F35898470135F8E7009888
:10013000019900F0B7FB114B051C1E1C104CE41A72
:10014000A410002C04DD013CA300F3589847F8E705
:10015000281C00F0C5F9C046000000201C0000204B
:10016000F40900081C00002024000020E001000821
:10017000E0010008E0010008E0010008E0010008DB
:10018000E001000809480047FEE7042071460842E4
:1001900002D0EFF3098001E0EFF308807146044AD2
:1001A0001047FEE7FEE7FEE770470000C5000008C5
:0601B000A3010008FEE7B8
:1001B800F4090008000000201C000020F4090008D1
:1001C80000000000000000001C00002024000020A7
:0801D80000000000000000001F
:1001E00008B5074B984209D180200121800000F01A
:1001F000D5F880200021800000F0D0F808BDC0466E
:10020000002401400A6810B58C68C3681443CA68AA
:1002100014430A6914434A691443044A13400A798F
:10022000234352031343C36010BDC04603D2FFFFF4
:100230000023036003718360C360036143617047FF
:1002400083680122002900D1022213438360704792
:10025000836A19438162426170478021826809067E
:100260000A43F021031C826009029A680139D20F07
:10027000D207002901D0002AF7D100209A688242D3
:1002800000DB186C70470422836813438360704757
:10029000006C80B270470000CB0103D58068044B2E
:1002A000184000E000680840411E8841C0B2704715
:1002B000FFFFFFFEF7B500220B6801930123934077
:1002C000019E1E409E422DD10C79631E012B16D833
:1002D0005700BC4603276546AF408368BB43836035
:1002E0004B798768AB403B4383608388B34383800B
:1002F0008E798788331C93403B439BB283800323D2
:100300005600B340DB43B44007681F4007600768EE
:100310003C430460C4682340C360CB79C468B340E5
:100320002343C3600132102AC8D1F7BD018570474D
:10033000072310B50F240B409B009A409C40131CD0
:10034000C90889004018016AA1430162016A0B4390
:10035000036210BD044B5A69002902D01043586152
:1003600001E082435A61704700100240044B9A69D1
:10037000002902D01043986101E082439A617047DE
:1003800000100240044BDA69002902D01043D86102
:1003900001E08243DA61704700100240044BDA68E2
:1003A000002902D01043D86001E08243DA60704730
:1003B0000010024030B50388154C9BB2A04206D015
:1003C0008022D205904202D0124A904203D170227C
:1003D00093434A881343104A904203D00F4A0D8931
:1003E00013402B4303804B68C3620B880385A042F4
:1003F00008D00B4B984205D00A4B984202D00A4BCA
:10040000984201D18B7A03860123838230BDC04696
:10041000002C01400004004000100040FFFCFFFFE2
:1004200000400140004401400048014001858282B3
:10043000704780220388002901D0134300E09343D2
:100440000380704701220388002901D0134300E094
:100450009343038070470000012270B57324038C1E
:1004600093430384038C8288058B92B2A5430C8846
:1004700025430224A3431E1C8C894B882343104C24
:100480003343A04208D00F4CA04205D00E4CA042EE
:1004900002D00E4CA0420DD10824A343CC894E8A31
:1004A00023430424A3438C882343094C22400C8A11
:1004B0003443224382808A6805834263038470BD8B
:1004C000002C014000400140004401400048014030
:1004D000FFFCFFFF0822038B9343194301837047FE
:1004E00008B500F011F8000001230360014B0B6018
:1004F0007047C0460000002008B500F013F808BDA2
:1005000008B500F089F808BDBFF34F8F034A044BCC
:10051000DA60BFF34F8FC046FDE7C0460400FA051E
:1005200000ED00E00121344B82B01A680A431A60E2
:100530005868324A02405A601868314A02401A60CC
:100540001868304A02401A6058682F4A02400F204B
:100550005A60DA6A8243DA62186B2C4A02401A63E4
:100560005A6B8A435A63002280219A60009201925A
:100570001A6849020A431A608022196892021140DF
:1005800001910099013100910199002904D1A02124
:100590000098C9018842EFD119680A4000D00122B1
:1005A0000192019A012A25D11121194A11605A6834
:1005B0005A605A685A605968164A0A4088215A6037
:1005C0005A6849030A4380215A601A6849040A4359
:1005D0001A601968084A8901FBD5032051688143D4
:1005E000516051680138014351600C2259680A403A
:1005F000082AFAD102B07047001002400CB8FF0878
:10060000FFFFF6FEFFFFFBFFFFFFC0FFACFEFFFF9B
:1006100000200240FF7FC0FF0C2370B5134D144E25
:100620006A681340042B01D0082B02D0114B3360B1
:1006300013E0C0236C686A68A402240F5B020234D2
:100640001A4201D10C4806E00F23E96A0948194013
:10065000013100F03DF9444334606B68074A1B06E2
:100660001B0FD35C3268DA40326070BD001002406C
:100670001800002000127A0000093D000800002048
:1006800037B5802001210003FFF764FE6A4601238D
:10069000137100236946937180240322054D4A712A
:1006A000281CCB710094FFF705FE281C211CFFF7C6
:1006B0003DFE37BD00080048802070B5800288B03C
:1006C0000121FFF747FE902003236A4600240226FB
:1006D000C005694613715371D4710096FFF7EAFDA6
:1006E00080200121800002ADFFF740FE1348FFF794
:1006F00077FD281CFFF79CFD1048291C02942C71E3
:10070000AC60EC602C616C61FFF77CFD311C0B4828
:10071000221CFFF79DFD0948FFF79FFD07480121B7
:10072000FFF78EFD05480121FFF7B6FD0028F9D03F
:100730000248FFF7A8FD08B070BDC0460024014084
:1007400008B50648FFF79FFD04480421FFF7A4FD04
:100750000028F9D00148FFF79BFD08BD00240140A7
:10076000802070B580028AB00121FFF7F3FD2023BD
:10077000022400936B46902600256A461C710323D1
:10078000F605301C69465371D571FFF793FD221CA5
:10079000301C0521FFF7CCFD0120011CFFF7F2FD05
:1007A000144B1549186800F093F88024C82302AE52
:1007B000E4050138311C3080201C75807360358160
:1007C000FFF7F8FD0126602305A9201C0B808D6032
:1007D0004E808D81FFF740FE201C0821FFF77AFE36
:1007E000201C311CFFF725FE201C311CFFF72AFEC0
:1007F0000AB070BD18000020400D0300C823434319
:10080000191C084B10B5186800F062F88024411ECE
:10081000E40589B2201C0022FFF708FE642363630D
:1008200010BDC0461800002080230022DB055A635B
:1008300070470000FA2108B50B4B8900186800F0DA
:1008400047F80A4B013898420DD8094A09495060C7
:10085000C0200B6A00061B021B0A03430B62002325
:1008600093600733136008BD18000020FFFFFF00EE
:1008700010E000E000ED00E0024B18601A68002A6A
:10088000FCD1704720000020034B1A68002A02D0D8
:100890001A68013A1A6070472000002008B5FFF777
:1008A000F3FF08BD08B5FFF7C5FFFFF7E9FEFFF747
:1008B00003FFFFF755FFFFF7B7FFFFF741FFC83012
:1008C00080B2FFF79BFF0120FFF7D6FFF5E700009E
:1008D000002243088B4274D303098B425FD3030A7F
:1008E0008B4244D3030B8B4228D3030C8B420DD392
:1008F000FF22090212BA030C8B4202D31212090220
:1009000065D0030B8B4219D300E0090AC30B8B425D
:1009100001D3CB03C01A5241830B8B4201D38B030B
:10092000C01A5241430B8B4201D34B03C01A5241B0
:10093000030B8B4201D30B03C01A5241C30A8B42F3
:1009400001D3CB02C01A5241830A8B4201D38B02DE
:10095000C01A5241430A8B4201D34B02C01A524182
:10096000030A8B4201D30B02C01A5241CDD2C309F4
:100970008B4201D3CB01C01A524183098B4201D370
:100980008B01C01A524143098B4201D34B01C01A5B
:10099000524103098B4201D30B01C01A5241C308D3
:1009A0008B4201D3CB00C01A524183088B4201D342
:1009B0008B00C01A524143088B4201D34B00C01A2E
:1009C0005241411A00D20146524110467047FFE79A
:1009D00001B5002000F00CF802BDC0460029F7D098
:1009E00003B5FFF775FF0EBC4243891A1847C0468E
:0409F0007047C04646
:1009F4001C000020000000000000000000000000B7
:0C0A04000102030406070809006CDC0274
:04000005080000C52A
:00000001FF
